FHSSVSSHL02011672015042114251020150421L                                                                                                                                                                 
SD0116700100001C63200500092120208371P. Miller                                     000000000500000              1492225 Disburse0000000000000                                                            
SC01167001D04282600000514031531SA Home Loans (Pty) Limited   000000000500000SAHL      SPV 27                                                                                                            
SD0116700200001C63200500090865045221Ms MARLENE THERESA HECTOR                     000000000200000              1492759 Disburse0000000000000                                                            
SC01167002D04282600000514031531SA Home Loans (Pty) Limited   000000000200000SAHL      SPV 34                                                                                                            
ST0116700000000000000000000020000020000000040000000007000000000000007000000000002000000000700000000000000700000000000000013143                                                                          
